{
  "address": "0xC66421665c37050ce2C2cA05f8aFE718ded5F993",
  "abi": [
    {
      "inputs": [
        {
          "internalType": "address",
          "name": "_usdEToken",
          "type": "address"
        },
        {
          "internalType": "address",
          "name": "_usdcToken",
          "type": "address"
        },
        {
          "internalType": "address",
          "name": "_aavePool",
          "type": "address"
        },
        {
          "internalType": "address",
          "name": "_ethenaStaking",
          "type": "address"
        },
        {
          "internalType": "address",
          "name": "_deployer",
          "type": "address"
        }
      ],
      "stateMutability": "nonpayable",
      "type": "constructor"
    },
    {
      "inputs": [],
      "name": "aavePool",
      "outputs": [
        {
          "internalType": "contract IPool",
          "name": "",
          "type": "address"
        }
      ],
      "stateMutability": "view",
      "type": "function"
    },
    {
      "inputs": [],
      "name": "closeLoan",
      "outputs": [],
      "stateMutability": "nonpayable",
      "type": "function"
    },
    {
      "inputs": [],
      "name": "deployer",
      "outputs": [
        {
          "internalType": "address",
          "name": "",
          "type": "address"
        }
      ],
      "stateMutability": "view",
      "type": "function"
    },
    {
      "inputs": [
        {
          "internalType": "uint256",
          "name": "_usdEAmount",
          "type": "uint256"
        },
        {
          "internalType": "uint256",
          "name": "_leverage",
          "type": "uint256"
        }
      ],
      "name": "deposit",
      "outputs": [],
      "stateMutability": "nonpayable",
      "type": "function"
    },
    {
      "inputs": [],
      "name": "ethenaStaking",
      "outputs": [
        {
          "internalType": "contract IEthenaStaking",
          "name": "",
          "type": "address"
        }
      ],
      "stateMutability": "view",
      "type": "function"
    },
    {
      "inputs": [],
      "name": "usdEToken",
      "outputs": [
        {
          "internalType": "contract IERC20",
          "name": "",
          "type": "address"
        }
      ],
      "stateMutability": "view",
      "type": "function"
    },
    {
      "inputs": [],
      "name": "usdcToken",
      "outputs": [
        {
          "internalType": "contract IERC20",
          "name": "",
          "type": "address"
        }
      ],
      "stateMutability": "view",
      "type": "function"
    },
    {
      "inputs": [
        {
          "internalType": "address",
          "name": "",
          "type": "address"
        }
      ],
      "name": "userDeposits",
      "outputs": [
        {
          "internalType": "uint256",
          "name": "usdEAmount",
          "type": "uint256"
        },
        {
          "internalType": "uint256",
          "name": "sUsdEAmount",
          "type": "uint256"
        },
        {
          "internalType": "uint256",
          "name": "usdcAmount",
          "type": "uint256"
        },
        {
          "internalType": "uint256",
          "name": "aEthUsdcAmount",
          "type": "uint256"
        }
      ],
      "stateMutability": "view",
      "type": "function"
    }
  ],
  "transactionHash": "0xf6d3f3ce9b390d213180b4bd283acf335955989f51034b219d1b531431c2522d",
  "args": [
    "0xf805ce4F96e0EdD6f0b6cd4be22B34b92373d696",
    "0x94a9D9AC8a22534E3FaCa9F4e7F2E2cf85d5E4C8",
    "0x16dA4541aD1807f4443d92D26044C1147406EB80",
    "0x1B6877c6Dac4b6De4c5817925DC40E2BfdAFc01b",
    "0xd219C8b54832d6ca7d933a42d51F8bDC3Ee4370B"
  ],
  "numDeployments": 2,
  "solcInputHash": "404c21b00bf5d46bec224d279a91488d",
  "bytecode": "0x61010060405234801561001157600080fd5b50604051610ac0380380610ac083398101604081905261003091610085565b6001600160a01b0394851660805292841660a05290831660c052821660e052600080546001600160a01b031916919092161790556100ea565b80516001600160a01b038116811461008057600080fd5b919050565b600080600080600060a0868803121561009d57600080fd5b6100a686610069565b94506100b460208701610069565b93506100c260408701610069565b92506100d060608701610069565b91506100de60808701610069565b90509295509295909350565b60805160a05160c05160e05161094361017d600039600081816101aa0152818161020a015281816104b5015261057101526000818161015d015281816102ca0152818161060b015261070001526000818160ed0152818161029401528181610352015281816103f80152818161063d015281816106c4015261077301526000818161013601526104e401526109436000f3fe608060405234801561001057600080fd5b50600436106100885760003560e01c8063a03e4bc31161005b578063a03e4bc314610158578063d5f394881461017f578063e2bbb15814610192578063efd821b5146101a557600080fd5b80630ba36dcd1461008d57806311eac855146100e8578063232fa7331461012757806382f6254714610131575b600080fd5b6100c361009b36600461083a565b6001602081905260009182526040909120805491810154600282015460039092015490919084565b6040805194855260208501939093529183015260608201526080015b60405180910390f35b61010f7f000000000000000000000000000000000000000000000000000000000000000081565b6040516001600160a01b0390911681526020016100df565b61012f6101cc565b005b61010f7f000000000000000000000000000000000000000000000000000000000000000081565b61010f7f000000000000000000000000000000000000000000000000000000000000000081565b60005461010f906001600160a01b031681565b61012f6101a036600461086a565b610498565b61010f7f000000000000000000000000000000000000000000000000000000000000000081565b336000818152600160208190526040918290209081015491516356e4bb9760e11b815260048101939093526024830191909152906001600160a01b037f0000000000000000000000000000000000000000000000000000000000000000169063adc9772e906044016020604051808303816000875af1158015610253573d6000803e3d6000fd5b505050506040513d601f19601f82011682018060405250810190610277919061088c565b506003810154604051631a4ca37b60e21b81526001600160a01b037f00000000000000000000000000000000000000000000000000000000000000008116600483015260248201929092523060448201527f0000000000000000000000000000000000000000000000000000000000000000909116906369328dec906064016020604051808303816000875af1158015610315573d6000803e3d6000fd5b505050506040513d601f19601f82011682018060405250810190610339919061088c565b506040516370a0823160e01b81523060048201526000907f00000000000000000000000000000000000000000000000000000000000000006001600160a01b0316906370a0823190602401602060405180830381865afa1580156103a1573d6000803e3d6000fd5b505050506040513d601f19601f820116820180604052508101906103c5919061088c565b905060008260020154826103d991906108bb565b60405163a9059cbb60e01b8152336004820152602481018290529091507f00000000000000000000000000000000000000000000000000000000000000006001600160a01b03169063a9059cbb906044016020604051808303816000875af1158015610449573d6000803e3d6000fd5b505050506040513d601f19601f8201168201806040525081019061046d91906108d4565b5050336000908152600160208190526040822082815590810182905560028101829055600301555050565b6040516323b872dd60e01b81523360048201526001600160a01b037f000000000000000000000000000000000000000000000000000000000000000081166024830152604482018490527f000000000000000000000000000000000000000000000000000000000000000016906323b872dd906064016020604051808303816000875af115801561052d573d6000803e3d6000fd5b505050506040513d601f19601f8201168201806040525081019061055191906108d4565b506040516356e4bb9760e11b8152336004820152602481018390526000907f00000000000000000000000000000000000000000000000000000000000000006001600160a01b03169063adc9772e906044016020604051808303816000875af11580156105c2573d6000803e3d6000fd5b505050506040513d601f19601f820116820180604052508101906105e6919061088c565b905060006105f483856108f6565b60405163095ea7b360e01b81526001600160a01b037f000000000000000000000000000000000000000000000000000000000000000081166004830152602482018390529192507f00000000000000000000000000000000000000000000000000000000000000009091169063095ea7b3906044016020604051808303816000875af1158015610688573d6000803e3d6000fd5b505050506040513d601f19601f820116820180604052508101906106ac91906108d4565b5060405163e8eda9df60e01b81526001600160a01b037f00000000000000000000000000000000000000000000000000000000000000008116600483015260248201839052306044830152600060648301527f0000000000000000000000000000000000000000000000000000000000000000169063e8eda9df90608401600060405180830381600087803b15801561074457600080fd5b505af1158015610758573d6000803e3d6000fd5b50506040516370a0823160e01b8152306004820152600092507f00000000000000000000000000000000000000000000000000000000000000006001600160a01b031691506370a0823190602401602060405180830381865afa1580156107c3573d6000803e3d6000fd5b505050506040513d601f19601f820116820180604052508101906107e7919061088c565b604080516080810182529687526020808801958652878201948552606088019283523360009081526001918290529190912096518755935193860193909355505160028401555160039092019190915550565b60006020828403121561084c57600080fd5b81356001600160a01b038116811461086357600080fd5b9392505050565b6000806040838503121561087d57600080fd5b50508035926020909101359150565b60006020828403121561089e57600080fd5b5051919050565b634e487b7160e01b600052601160045260246000fd5b818103818111156108ce576108ce6108a5565b92915050565b6000602082840312156108e657600080fd5b8151801515811461086357600080fd5b80820281158282048414176108ce576108ce6108a556fea2646970667358221220e0d6b3410cf71646bf5b400111500e5376c6dd404c319e6686b514656bb7d4fc64736f6c63430008140033",
  "devdoc": {
    "kind": "dev",
    "methods": {},
    "version": 1
  },
  "userdoc": {
    "kind": "user",
    "methods": {},
    "version": 1
  },
  "storageLayout": {
    "storage": [
      {
        "astId": 1305,
        "contract": "contracts/Loan_.sol:Loan",
        "label": "deployer",
        "offset": 0,
        "slot": "0",
        "type": "t_address"
      },
      {
        "astId": 1310,
        "contract": "contracts/Loan_.sol:Loan",
        "label": "userDeposits",
        "offset": 0,
        "slot": "1",
        "type": "t_mapping(t_address,t_struct(UserDeposit)1319_storage)"
      }
    ],
    "types": {
      "t_address": {
        "encoding": "inplace",
        "label": "address",
        "numberOfBytes": "20"
      },
      "t_mapping(t_address,t_struct(UserDeposit)1319_storage)": {
        "encoding": "mapping",
        "key": "t_address",
        "label": "mapping(address => struct Loan.UserDeposit)",
        "numberOfBytes": "32",
        "value": "t_struct(UserDeposit)1319_storage"
      },
      "t_struct(UserDeposit)1319_storage": {
        "encoding": "inplace",
        "label": "struct Loan.UserDeposit",
        "members": [
          {
            "astId": 1312,
            "contract": "contracts/Loan_.sol:Loan",
            "label": "usdEAmount",
            "offset": 0,
            "slot": "0",
            "type": "t_uint256"
          },
          {
            "astId": 1314,
            "contract": "contracts/Loan_.sol:Loan",
            "label": "sUsdEAmount",
            "offset": 0,
            "slot": "1",
            "type": "t_uint256"
          },
          {
            "astId": 1316,
            "contract": "contracts/Loan_.sol:Loan",
            "label": "usdcAmount",
            "offset": 0,
            "slot": "2",
            "type": "t_uint256"
          },
          {
            "astId": 1318,
            "contract": "contracts/Loan_.sol:Loan",
            "label": "aEthUsdcAmount",
            "offset": 0,
            "slot": "3",
            "type": "t_uint256"
          }
        ],
        "numberOfBytes": "128"
      },
      "t_uint256": {
        "encoding": "inplace",
        "label": "uint256",
        "numberOfBytes": "32"
      }
    }
  }
}